:040000000AEF00F013
:10000800D9CF54F0DACF55F00CED00F06FEF02F0D5
:100018000600F2A401D001D083D0F294EC0ED76E82
:10002800770ED66E010E3926000E3A22000E3B22BC
:10003800000E3C220F50506E1050516E526A536A97
:100048003C50531808E13B50521805E13A505118FA
:1000580002E139505018D8A401D001D001D08188CC
:1000680004503C1808E103503B1805E102503A18C7
:1000780002E101503918D8A401D001D002D0530EA2
:100088006A6E0D50506E0E50516E526A536A3C5053
:10009800531808E13B50521805E13A50511802E153
:1000A80039505018D8A401D001D001D0BE6A39C047
:1000B80047F03AC048F03BC049F03CC04AF0640EF3
:1000C8004B6E000E4C6E000E4D6E000E4E6EE6EC42
:1000D80001F04A50471048104910D8A401D001D067
:1000E80004D0000E126E010E116E08500710D8B41D
:1000F80001D001D005D00B4A0C2A076A086A02D041
:100108000B6A0C6A320E0B5C000E0C58D8A001D09A
:1001180001D006D0000E066E010E056E0B6A0C6A41
:100128009EA601D001D06FD0C7A401D001D033D092
:10013800C7BA01D001D00ED01750670FD96EDA6A4E
:10014800DF50D96EDA6ADF50C96E000E166E010EE6
:10015800156EC688C7AA01D001D01DD01750650FEB
:10016800D96EDA6ADF50506E5050155C000E165882
:10017800D8B001D001D00DD01750670FD96EDA6A08
:10018800DF501524D96EDA6ADF50C96E154A162A6F
:1001980001D0C950C688C7B401D001D033D0C7BA7E
:1001A80001D001D003D0C950186AC688C7AA01D0A7
:1001B80001D028D0186601D001D007D0C9CF17F0D8
:1001C800156A166A010E186E16D0200E155C000E00
:1001D8001658D8B001D001D00DD01750690FD96E7C
:1001E800DA6ADF501524D96EDA6AC9CFDFFF154AFB
:1001F800162A01D0C950C6AE01D001D002D0C69E81
:10020800C950C6889E96A1A601D001D004D0C95075
:10021800A196C6889E9655C0DAFF54C0D9FF110032
:10022800636A646A616A626A5F6A606A48EC02F0DB
:10023800220EABEC02F01250111022E0116A126A81
:10024800010EC26EC28204D0C4503E6EC3503D6ED1
:10025800C2B2FAD73DC056F03EC057F09EEC02F04D
:10026800050EC26EC28204D0C450406EC3503F6EA9
:10027800C2B2FAD73FC056F040C057F09EEC02F029
:1002880081A61AD06450631017E1086A010E076E40
:1002980081A612D0645063100FE1065005100CE0DF
:1002A800646A010E636E818A056A066A880E3924BB
:1002B8000F6E130E3A20106E81A229D0645063107D
:1002C80026E06250611023E1086A010E076E81A2E0
:1002D8001ED0645063101BE06250611018E1065094
:1002E800051015E0626A010E616E818C056A066A66
:1002F800819A470E6A6EE00E3924016E220E3A206A
:10030800026E020E3B20036E000E3C20046E81A498
:1003180092D7625061108FE0645063108CE0605097
:100328005F1089E1086A010E076E81A41BD0625034
:10033800611018E06450631015E060505F1012E11E
:10034800065005100FE00A6A010E096E606A5F6EBA
:10035800818E056A066A819C200E39240D6E4E0E28
:100368003A200E6E0A50091001E165D739C056F0DF
:100378003AC057F03BC058F03CC059F0050E5A6ED1
:10038800000E5B6A5C6A5D6A17EC02F05950561001
:100398005710581001E04FD7146A320E136E13C06D
:1003A80056F014C057F0596A0A0E586E88EC02F0DD
:1003B80056C013F057C014F014AE02D0136A146A72
:1003C800BE6839D74E504B104C104D1023E0010E2B
:1003D8004F6E06D0D8904B364C364D364E364F2A97
:1003E8004EAEF8D74B50475C4C5048584D50495882
:1003F8004E504A5808E34B50475E4C50485A4D50AF
:10040800495A4E504A5AD8904E324D324C324B329D
:100418004F2EE8D747C047F048C048F049C049F0D8
:100428004AC04AF012005D505A105B105C1023E07D
:10043800010E5E6E06D0D8905A365B365C365D3655
:100448005E2A5DAEF8D75A50565C5B5057585C50E0
:1004580058585D50595808E35A50565E5B50575AE1
:100468005C50585A5D50595AD8905D325C325B32B4
:100478005A325E2EE8D756C056F057C057F058C0CB
:1004880058F059C059F01200806A070E926E816ABE
:100498000E0E936E826AD80E946ED09EF28EF28CF7
:1004A800F28A9D8A8C0ED56EEC0ED76E770ED66EBC
:1004B800260EAC6E900EAB6E0A0EB86E810EAF6E45
:1004C8001A0EC16EB50EC06E0C0EBD6ECB68BE6A3C
:1004D800040ECA6E040C00EE01F0460EEE6AE80641
:1004E800FDE16A0EF66E050EF76E000EF86E00EE70
:1004F80065F010EE06F00900F5CFEEFFE550E1508B
:10050800FAE1000114EF01F05A6A5B6A56A004D0C0
:1005180058505A2659505B22D89058365936D89098
:100528005732563257505610F1E15AC056F05BC058
:1005380057F012005750586E9EA8FED758C0ADFF0E
:1005480056C059F09EA8FED759C0ADFF1200E8CF9B
:1005580056F0800EC76E360EC66EC58056C0C8FFF0
:08056800360C010E6A3919532B
:020000040030CA
:0600010002181E008180C0
:060008000FC00FE00F40E5
:00000001FF
