:040000000CEF00F011
:10000800FACF3AF0FBCF3BF0E9CF3CF00EED00F031
:1000180084EF03F00600EACF3DF0E1CF3EF0E2CFF7
:100028003FF0D9CF40F0DACF41F0F3CF42F0F4CF30
:1000380043F0F6CF44F0F7CF45F0F8CF46F0F5CFD0
:1000480047F0F2A401D001D093D0F294EC0ED76E11
:10005800770ED66E010E1E26000E1F22000E2022DD
:10006800000E21221350366E1450376E386A396AE2
:100078002150391808E12050381805E11F50371869
:1000880002E11E503618D8A401D001D002D08188D0
:1000980000D00450211808E10350201805E102504F
:1000A8001F1802E101501E18D8A401D001D005D0B4
:1000B800366E530E5C6E365000D01150366E1250AC
:1000C800376E386A396A2150391808E120503818D3
:1000D80005E11F50371802E11E503618D8A401D088
:1000E80001D003D0000EBE6E00D01EC02CF01FC081
:1000F8002DF020C02EF021C02FF0640E306E000EBF
:10010800316E000E326E000E336E24EC03F02F5069
:100118002C102D102E10D8A401D001D005D0000E1F
:10012800166E010E156E00D008500710D8B401D015
:1001380001D007D00F4A102A000E086E000E076E75
:1001480005D0000E106E000E0F6E00D0320E0F5C40
:10015800000E1058D8A001D001D00AD0000E066EAB
:10016800010E056E000E106E000E0F6E01D000D04D
:100178009EA601D001D0A0D0C7A401D001D04DD0F7
:10018800C7BA01D001D018D01C50020D540EF32468
:10019800D96E000EF420DA6EDECF36F0DDCF37F000
:1001A80036C0D9FF37C0DAFFDF50C96E000E1A6EAD
:1001B800010E196EC68800D0C7AA01D001D02DD073
:1001C8001C50010D5A0EF324D96E000EF420DA6E7D
:1001D800DF50366E3650195C000E1A58D8B001D070
:1001E80001D017D01C50020D540EF324D96E000E06
:1001F800F420DA6EDECF36F0DDCF37F01950362432
:10020800D96E1A503720DA6EDF50C96E194A1A2A89
:1002180002D0C9CF1BF0C68800D0C7B401D001D026
:100228004AD0C7BA01D001D008D0C9CF1BF0366E6A
:10023800000E1D6E3650C68800D0C7AA01D001D066
:100248003AD01D6601D001D00BD0C9CF1CF0000EEA
:100258001A6E000E196E366E010E1D6E365022D0C3
:10026800200E195C000E1A58D8B001D001D017D052
:100278001C50020D580EF324D96E000EF420DA6ECD
:10028800DECF36F0DDCF37F019503624D96E1A504C
:100298003720DA6EC9CFDFFF194A1A2A03D0C9CF2F
:1002A8001BF000D0C6AE01D001D003D0C69EC9CF86
:1002B8001BF0C68800D09E96A1A601D001D006D01A
:1002C800C9CF1BF0A196C6889E9600D047C0F5FFFF
:1002D80046C0F8FF45C0F7FF44C0F6FF43C0F4FF2F
:1002E80042C0F3FF41C0DAFF40C0D9FF3FC0E2FF80
:1002F8003EC0E1FF3DC0EAFF3CC0E9FF3BC0FBFF59
:100308003AC0FAFF1100000E00010001AA6F000EAA
:100318000001A96F000E00010001A86F000E000186
:10032800A76F000E00010001A66F000E0001A56F67
:10033800000E00010001A16F000E0001A06F000E69
:1003480000010001A36F000E0001A26F59EC03F039
:10035800526E220E486E5250CDEC03F01650151016
:10036800D8B424D0000E166E000E156E010EC26EA3
:10037800C28204D0C450236EC350226EC2B2FAD7D0
:1003880022C048F023C049F0C0EC03F0050EC26E4D
:10039800C28204D0C450256EC350246EC2B2FAD7AC
:1003A80024C048F025C049F0C0EC03F081A62CD049
:1003B80000010001AA51A911D8A426D0000E086E88
:1003C800010E076E81A620D000010001AA51A911D3
:1003D800D8A41AD006500510D8B416D0000E0A6E4C
:1003E800010E096E000E00010001AA6F010E000146
:1003F800A96F818A000E066E000E056E880E1E24F7
:10040800136E130E1F20146E81A247D00001000145
:10041800AA51A911D8B441D000010001A851A711CF
:10042800D8A43BD0000E086E010E076E81A235D00D
:1004380000010001AA51A911D8B42FD00001000170
:10044800A851A711D8A429D006500510D8B425D092
:10045800000E0C6E010E0B6E000E00010001A86F5D
:10046800010E0001A76F818C000E066E000E056E4E
:10047800000E0A6E000E096E819A526E470E5C6E6F
:100488005250E00E1E24016E220E1F20026E020E34
:100498002020036E000E2120046E81A45FD7000186
:1004A8000001A851A711D8B459D700010001AA51D9
:1004B800A911D8B453D700010001A651A511D8A499
:1004C8004DD7000E086E010E076E81A431D00001D1
:1004D8000001A851A711D8B42BD000010001AA51DE
:1004E800A911D8B425D000010001A651A511D8A49E
:1004F8001FD006500510D8B41BD0000E0E6E010E8A
:100508000D6E000E00010001A66F010E0001A56F1F
:10051800818E000E066E000E056E000E0C6E000E2B
:100528000B6E819C200E1E24116E4E0E1F20126E23
:100538000E500D10D8B412D71EC048F01FC049F095
:1005480020C04AF021C04BF0050E4C6E000E4D6ED7
:10055800000E4E6E000E4F6EEFEC02F04B5048103E
:1005680049104A10D8A4FAD620EE22F0DECF52F075
:10057800DDCF53F0521E531E524A532A730E522493
:10058800176E020E5320186E17C048F018C049F0B5
:10059800000E4B6E0A0E4A6EA3EC03F048C017F02B
:1005A80049C018F018AE04D0000E186E000E176E71
:1005B800526E000E00010001A46F5250185017101F
:1005C800D8B406D0526E010E00010001A46F52503B
:1005D800A4C0BEFFC3D64F504C104D104E10D8B417
:1005E80026D0506E010E516E505006D0D8904C3621
:1005F8004D364E364F36512A4FAEF8D74C50485CE0
:100608004D5049584E504A584F504B58D8A008D0D2
:100618004C50485E4D50495A4E504A5A4F504B5ACA
:10062800D8904F324E324D324C32512EE7D748C017
:1006380048F049C049F04AC04AF04BC04BF012009C
:100648003350301031103210D8B426D0346E010E29
:10065800356E345006D0D89030363136323633368F
:10066800352A33AEF8D730502C5C31502D583250E3
:100678002E5833502F58D8A008D030502C5E315007
:100688002D5A32502E5A33502F5AD8903332323294
:1006980031323032352EE7D72CC02CF02DC02DF05A
:1006A8002EC02EF02FC02FF01200000E806E070E05
:1006B800926E000E816E0E0E936E000E826ED80E34
:1006C800946ED09EF28EF28CF28A9D8A8C0ED56E34
:1006D800EC0ED76E770ED66E260EAC6E900EAB6E05
:1006E8000A0EB86E810EAF6E1A0EC16EB50EC06ED0
:1006F8000C0EBD6ECB68000EBE6E040ECA6E1200E4
:1007080000EE80F0200EEE6AE806FDE100EE01F052
:100718002B0EEE6AE806FDE1AA0EF66E070EF76EDE
:10072800000EF86E00EE54F010EE09F00900F5CF57
:10073800EEFFE550E150FAE1000187EF01F0485083
:100748004A02F3CF4CF0F4CF4DF048504B02F3CFB0
:10075800F4FFF36AF3504C26F4504D2249504A02F4
:10076800F3CFF4FFF36AF3504C26F4504D224CC0FB
:1007780048F04DC049F0120049504A6E9EA8FED775
:100788004AC0ADFF48C04BF09EA8FED74BC0ADFF96
:100798001200800EC76E360EC66EC58048C0C8FFF0
:0C07A80012005C001E008000010E5300D7
:020000040030CA
:0E000000FF02181EFF8180FF0FC00FE00F40AF
:00000001FF
